{
    "contractName": "ContractNameHere",
    "abi": [
        {
            "inputs": [],
            "stateMutability": "nonpayable",
            "type": "constructor"
        },
        {
            "inputs": [
                {
                    "internalType": "uint256",
                    "name": "_blockNumber",
                    "type": "uint256"
                }
            ],
            "name": "globalFunctions",
            "outputs": [],
            "stateMutability": "payable",
            "type": "function"
        }
    ],
    "bytecode": "6080604052348015600f57600080fd5b50600080546001600160a01b03191633179055607f806100306000396000f3fe608060405260043610601c5760003560e01c806340a893d6146021575b600080fd5b602f602c3660046031565b50565b005b600060208284031215604257600080fd5b503591905056fea2646970667358221220782303ed338302b1555e01987d3db76c5cab684a59778d7878e0e4189b80966764736f6c634300080a0033",
    "sourcePath": "c:/Users/manue/OneDrive/Escritorio/Books/Curso-Solidity-Udemy/teoria.sol",
    "compiler": {
        "name": "solc",
        "version": "0.8.10+commit.fc410830"
    },
    "functionHashes": {
        "globalFunctions(uint256)": "40a893d6"
    },
    "gasEstimates": {
        "creation": {
            "codeDepositCost": "25400",
            "executionCost": "24310",
            "totalCost": "49710"
        },
        "external": {
            "globalFunctions(uint256)": "165"
        }
    }
}