{
    "contractName": "funciones_globales",
    "abi": [
        {
            "inputs": [],
            "name": "BlockCoinbase",
            "outputs": [
                {
                    "internalType": "address",
                    "name": "",
                    "type": "address"
                }
            ],
            "stateMutability": "view",
            "type": "function"
        },
        {
            "inputs": [],
            "name": "BlockDifficulty",
            "outputs": [
                {
                    "internalType": "uint256",
                    "name": "",
                    "type": "uint256"
                }
            ],
            "stateMutability": "view",
            "type": "function"
        },
        {
            "inputs": [],
            "name": "BlockNumber",
            "outputs": [
                {
                    "internalType": "uint256",
                    "name": "",
                    "type": "uint256"
                }
            ],
            "stateMutability": "view",
            "type": "function"
        },
        {
            "inputs": [],
            "name": "MsgSender",
            "outputs": [
                {
                    "internalType": "address",
                    "name": "",
                    "type": "address"
                }
            ],
            "stateMutability": "view",
            "type": "function"
        },
        {
            "inputs": [],
            "name": "MsgSig",
            "outputs": [
                {
                    "internalType": "bytes4",
                    "name": "",
                    "type": "bytes4"
                }
            ],
            "stateMutability": "pure",
            "type": "function"
        },
        {
            "inputs": [],
            "name": "txGasPrice",
            "outputs": [
                {
                    "internalType": "uint256",
                    "name": "",
                    "type": "uint256"
                }
            ],
            "stateMutability": "view",
            "type": "function"
        }
    ],
    "bytecode": "608060405234801561001057600080fd5b5060eb8061001f6000396000f3fe6080604052348015600f57600080fd5b5060043610605a5760003560e01c8063083f3ec414605f5780630a64926714607e578063534ca054146097578063648685101460a657806384d63e121460ab578063e6c595c01460b0575b600080fd5b6040516001600160e01b03196000351681526020015b60405180910390f35b415b6040516001600160a01b0390911681526020016075565b3a5b6040519081526020016075565b436099565b336080565b44609956fea2646970667358221220fd6801cf53a69d0900d1ce5e295a9043ad1cf2fdb5dd063b4f4dfb84b9fe497064736f6c634300080a0033",
    "sourcePath": "c:/Users/manue/Desktop/Curso-Solidity-Udemy/teoria.sol",
    "compiler": {
        "name": "solc",
        "version": "0.8.10+commit.fc410830"
    },
    "functionHashes": {
        "BlockCoinbase()": "0a649267",
        "BlockDifficulty()": "e6c595c0",
        "BlockNumber()": "64868510",
        "MsgSender()": "84d63e12",
        "MsgSig()": "083f3ec4",
        "txGasPrice()": "534ca054"
    },
    "gasEstimates": {
        "creation": {
            "codeDepositCost": "47000",
            "executionCost": "99",
            "totalCost": "47099"
        },
        "external": {
            "BlockCoinbase()": "201",
            "BlockDifficulty()": "279",
            "BlockNumber()": "235",
            "MsgSender()": "278",
            "MsgSig()": "168",
            "txGasPrice()": "202"
        }
    }
}