{
    "contractName": "hash",
    "abi": [
        {
            "inputs": [
                {
                    "internalType": "string",
                    "name": "_cadena",
                    "type": "string"
                }
            ],
            "name": "calcularHash",
            "outputs": [
                {
                    "internalType": "bytes32",
                    "name": "",
                    "type": "bytes32"
                }
            ],
            "stateMutability": "pure",
            "type": "function"
        },
        {
            "inputs": [
                {
                    "internalType": "string",
                    "name": "_cadena",
                    "type": "string"
                },
                {
                    "internalType": "uint256",
                    "name": "_k",
                    "type": "uint256"
                },
                {
                    "internalType": "address",
                    "name": "_direccion",
                    "type": "address"
                }
            ],
            "name": "calcularHash2",
            "outputs": [
                {
                    "internalType": "bytes32",
                    "name": "",
                    "type": "bytes32"
                }
            ],
            "stateMutability": "pure",
            "type": "function"
        },
        {
            "inputs": [
                {
                    "internalType": "string",
                    "name": "_cadena",
                    "type": "string"
                },
                {
                    "internalType": "uint256",
                    "name": "_k",
                    "type": "uint256"
                },
                {
                    "internalType": "address",
                    "name": "_direccion",
                    "type": "address"
                }
            ],
            "name": "calcularHash3",
            "outputs": [
                {
                    "internalType": "bytes32",
                    "name": "",
                    "type": "bytes32"
                }
            ],
            "stateMutability": "pure",
            "type": "function"
        }
    ],
    "bytecode": "608060405234801561001057600080fd5b50610351806100206000396000f3fe608060405234801561001057600080fd5b50600436106100415760003560e01c80633d76e9091461004657806352de28e81461006b578063da100b1d1461007e575b600080fd5b6100596100543660046101b4565b610091565b60405190815260200160405180910390f35b6100596100793660046101f1565b6100c1565b61005961008c3660046101f1565b6100fa565b6000816040516020016100a49190610293565b604051602081830303815290604052805190602001209050919050565b600083838360026040516020016100db94939291906102a6565b6040516020818303038152906040528051906020012090509392505050565b60008383836040516020016100db939291906102eb565b634e487b7160e01b600052604160045260246000fd5b600082601f83011261013857600080fd5b813567ffffffffffffffff8082111561015357610153610111565b604051601f8301601f19908116603f0116810190828211818310171561017b5761017b610111565b8160405283815286602085880101111561019457600080fd5b836020870160208301376000602085830101528094505050505092915050565b6000602082840312156101c657600080fd5b813567ffffffffffffffff8111156101dd57600080fd5b6101e984828501610127565b949350505050565b60008060006060848603121561020657600080fd5b833567ffffffffffffffff81111561021d57600080fd5b61022986828701610127565b9350506020840135915060408401356001600160a01b038116811461024d57600080fd5b809150509250925092565b6000815160005b81811015610279576020818501810151868301520161025f565b81811115610288576000828601525b509290920192915050565b600061029f8284610258565b9392505050565b60006102b28287610258565b948552505060609190911b6bffffffffffffffffffffffff1916602083015263686f6c6160e01b60348301526038820152605801919050565b60006102f78286610258565b938452505060601b6bffffffffffffffffffffffff1916602082015260340191905056fea264697066735822122091209e38e5c15774c3d03b8caee85bb1b11a13148c5def526ef2f48b4c60f2ef64736f6c634300080a0033",
    "sourcePath": "c:/Users/manue/Desktop/Curso-Solidity-Udemy/teoria.sol",
    "compiler": {
        "name": "solc",
        "version": "0.8.10+commit.fc410830"
    },
    "functionHashes": {
        "calcularHash(string)": "3d76e909",
        "calcularHash2(string,uint256,address)": "da100b1d",
        "calcularHash3(string,uint256,address)": "52de28e8"
    },
    "gasEstimates": {
        "creation": {
            "codeDepositCost": "169800",
            "executionCost": "214",
            "totalCost": "170014"
        },
        "external": {
            "calcularHash(string)": "infinite",
            "calcularHash2(string,uint256,address)": "infinite",
            "calcularHash3(string,uint256,address)": "infinite"
        }
    }
}